{
  "_format": "hh-sol-artifact-1",
  "contractName": "LiquidityManager",
  "sourceName": "contracts/LiquidityManager.sol",
  "abi": [
    {
      "inputs": [
        {
          "internalType": "address payable",
          "name": "_gxotToken",
          "type": "address"
        }
      ],
      "stateMutability": "nonpayable",
      "type": "constructor"
    },
    {
      "inputs": [],
      "name": "ReentrancyGuardReentrantCall",
      "type": "error"
    },
    {
      "anonymous": false,
      "inputs": [
        {
          "indexed": true,
          "internalType": "address",
          "name": "user",
          "type": "address"
        },
        {
          "indexed": false,
          "internalType": "uint256",
          "name": "tokenAmount",
          "type": "uint256"
        },
        {
          "indexed": false,
          "internalType": "uint256",
          "name": "ethAmount",
          "type": "uint256"
        },
        {
          "indexed": false,
          "internalType": "uint256",
          "name": "liquidity",
          "type": "uint256"
        }
      ],
      "name": "LiquidityAdded",
      "type": "event"
    },
    {
      "anonymous": false,
      "inputs": [
        {
          "indexed": true,
          "internalType": "address",
          "name": "user",
          "type": "address"
        },
        {
          "indexed": false,
          "internalType": "uint256",
          "name": "tokenAmount",
          "type": "uint256"
        },
        {
          "indexed": false,
          "internalType": "uint256",
          "name": "ethAmount",
          "type": "uint256"
        },
        {
          "indexed": false,
          "internalType": "uint256",
          "name": "liquidity",
          "type": "uint256"
        }
      ],
      "name": "LiquidityRemoved",
      "type": "event"
    },
    {
      "inputs": [],
      "name": "SWAP_ROUTER",
      "outputs": [
        {
          "internalType": "address",
          "name": "",
          "type": "address"
        }
      ],
      "stateMutability": "view",
      "type": "function"
    },
    {
      "inputs": [],
      "name": "WETH_ADDRESS",
      "outputs": [
        {
          "internalType": "address",
          "name": "",
          "type": "address"
        }
      ],
      "stateMutability": "view",
      "type": "function"
    },
    {
      "inputs": [
        {
          "internalType": "uint256",
          "name": "tokenAmount",
          "type": "uint256"
        },
        {
          "internalType": "uint256",
          "name": "minEthAmount",
          "type": "uint256"
        }
      ],
      "name": "addLiquidity",
      "outputs": [],
      "stateMutability": "payable",
      "type": "function"
    },
    {
      "inputs": [
        {
          "internalType": "address",
          "name": "token",
          "type": "address"
        }
      ],
      "name": "emergencyWithdraw",
      "outputs": [],
      "stateMutability": "nonpayable",
      "type": "function"
    },
    {
      "inputs": [
        {
          "internalType": "address",
          "name": "user",
          "type": "address"
        }
      ],
      "name": "getTotalLiquidity",
      "outputs": [
        {
          "internalType": "uint256",
          "name": "",
          "type": "uint256"
        }
      ],
      "stateMutability": "view",
      "type": "function"
    },
    {
      "inputs": [
        {
          "internalType": "address",
          "name": "user",
          "type": "address"
        }
      ],
      "name": "getUserPositionCount",
      "outputs": [
        {
          "internalType": "uint256",
          "name": "",
          "type": "uint256"
        }
      ],
      "stateMutability": "view",
      "type": "function"
    },
    {
      "inputs": [
        {
          "internalType": "address",
          "name": "user",
          "type": "address"
        }
      ],
      "name": "getUserPositions",
      "outputs": [
        {
          "components": [
            {
              "internalType": "uint256",
              "name": "tokenAmount",
              "type": "uint256"
            },
            {
              "internalType": "uint256",
              "name": "ethAmount",
              "type": "uint256"
            },
            {
              "internalType": "uint256",
              "name": "liquidityTokens",
              "type": "uint256"
            },
            {
              "internalType": "uint256",
              "name": "timestamp",
              "type": "uint256"
            }
          ],
          "internalType": "struct LiquidityManager.LiquidityPosition[]",
          "name": "",
          "type": "tuple[]"
        }
      ],
      "stateMutability": "view",
      "type": "function"
    },
    {
      "inputs": [],
      "name": "gxotToken",
      "outputs": [
        {
          "internalType": "contract GXOT",
          "name": "",
          "type": "address"
        }
      ],
      "stateMutability": "view",
      "type": "function"
    },
    {
      "inputs": [
        {
          "internalType": "uint256",
          "name": "positionIndex",
          "type": "uint256"
        }
      ],
      "name": "removeLiquidity",
      "outputs": [],
      "stateMutability": "nonpayable",
      "type": "function"
    },
    {
      "inputs": [
        {
          "internalType": "address",
          "name": "",
          "type": "address"
        }
      ],
      "name": "totalUserLiquidity",
      "outputs": [
        {
          "internalType": "uint256",
          "name": "",
          "type": "uint256"
        }
      ],
      "stateMutability": "view",
      "type": "function"
    },
    {
      "inputs": [
        {
          "internalType": "address",
          "name": "",
          "type": "address"
        },
        {
          "internalType": "uint256",
          "name": "",
          "type": "uint256"
        }
      ],
      "name": "userPositions",
      "outputs": [
        {
          "internalType": "uint256",
          "name": "tokenAmount",
          "type": "uint256"
        },
        {
          "internalType": "uint256",
          "name": "ethAmount",
          "type": "uint256"
        },
        {
          "internalType": "uint256",
          "name": "liquidityTokens",
          "type": "uint256"
        },
        {
          "internalType": "uint256",
          "name": "timestamp",
          "type": "uint256"
        }
      ],
      "stateMutability": "view",
      "type": "function"
    },
    {
      "stateMutability": "payable",
      "type": "receive"
    }
  ],
  "bytecode": "0x60a060405234801561001057600080fd5b506040516110f23803806110f283398101604081905261002f91610045565b60016000556001600160a01b0316608052610075565b60006020828403121561005757600080fd5b81516001600160a01b038116811461006e57600080fd5b9392505050565b60805161103f6100b3600039600081816102870152818161038e01528181610683015281816109ec01528181610ad50152610b6b015261103f6000f3fe6080604052600436106100a05760003560e01c80636ff1c9bc116100645780636ff1c9bc146101c25780639c8f9f23146101e45780639cd441da146102045780639de8ef7914610217578063c60058931461024d578063f67a1d931461027557600080fd5b8063040141e5146100ac5780632a6bc2dd146100e457806331e8a7ef14610111578063558ed88b146101555780635e1b4d991461018257600080fd5b366100a757005b600080fd5b3480156100b857600080fd5b506100c76006602160991b0181565b6040516001600160a01b0390911681526020015b60405180910390f35b3480156100f057600080fd5b506101046100ff366004610dc9565b6102a9565b6040516100db9190610ded565b34801561011d57600080fd5b5061014761012c366004610dc9565b6001600160a01b031660009081526001602052604090205490565b6040519081526020016100db565b34801561016157600080fd5b50610147610170366004610dc9565b60026020526000908152604090205481565b34801561018e57600080fd5b506101a261019d366004610e51565b610346565b6040805194855260208501939093529183015260608201526080016100db565b3480156101ce57600080fd5b506101e26101dd366004610dc9565b61038c565b005b3480156101f057600080fd5b506101e26101ff366004610e7d565b610582565b6101e2610212366004610e96565b6108bc565b34801561022357600080fd5b50610147610232366004610dc9565b6001600160a01b031660009081526002602052604090205490565b34801561025957600080fd5b506100c773091ad9e2e6e5ed44c1c66db50e49a601f9f36cf681565b34801561028157600080fd5b506100c77f000000000000000000000000000000000000000000000000000000000000000081565b6001600160a01b0381166000908152600160209081526040808320805482518185028101850190935280835260609492939192909184015b8282101561033b5783829060005260206000209060040201604051806080016040529081600082015481526020016001820154815260200160028201548152602001600382015481525050815260200190600101906102e1565b505050509050919050565b6001602052816000526040600020818154811061036257600080fd5b60009182526020909120600490910201805460018201546002830154600390930154919450925084565b7f00000000000000000000000000000000000000000000000000000000000000006001600160a01b0316638da5cb5b6040518163ffffffff1660e01b8152600401602060405180830381865afa1580156103ea573d6000803e3d6000fd5b505050506040513d601f19601f8201168201806040525081019061040e9190610eb8565b6001600160a01b0316336001600160a01b0316146104605760405162461bcd60e51b815260206004820152600a60248201526927b7363c9037bbb732b960b11b60448201526064015b60405180910390fd5b6001600160a01b03811661049e5760405133904780156108fc02916000818181858888f1935050505015801561049a573d6000803e3d6000fd5b5050565b6040516370a0823160e01b81523060048201526001600160a01b0382169063a9059cbb90339083906370a0823190602401602060405180830381865afa1580156104ec573d6000803e3d6000fd5b505050506040513d601f19601f820116820180604052508101906105109190610ed5565b6040516001600160e01b031960e085901b1681526001600160a01b03909216600483015260248201526044016020604051808303816000875af115801561055b573d6000803e3d6000fd5b505050506040513d601f19601f8201168201806040525081019061049a9190610eee565b50565b61058a610d8a565b3360009081526001602052604090205481106105e15760405162461bcd60e51b8152602060048201526016602482015275092dcecc2d8d2c840e0dee6d2e8d2dedc40d2dcc8caf60531b6044820152606401610457565b33600090815260016020526040812080548390811061060257610602610f10565b90600052602060002090600402019050600081600201541161065f5760405162461bcd60e51b81526020600482015260166024820152754e6f206c697175696469747920746f2072656d6f766560501b6044820152606401610457565b600281015460008073091ad9e2e6e5ed44c1c66db50e49a601f9f36cf663baa2abde7f00000000000000000000000000000000000000000000000000000000000000006006602160991b01868580336106ba4261012c610f3c565b60405160e089901b6001600160e01b03191681526001600160a01b039788166004820152958716602487015260448601949094526064850192909252608484015290921660a482015260c481019190915260e40160408051808303816000875af115801561072c573d6000803e3d6000fd5b505050506040513d601f19601f820116820180604052508101906107509190610f55565b33600090815260026020526040812080549395509193508592610774908490610f79565b90915550503360009081526001602081905260409091208054909161079891610f79565b815481106107a8576107a8610f10565b906000526020600020906004020160016000336001600160a01b03166001600160a01b0316815260200190815260200160002086815481106107ec576107ec610f10565b600091825260208083208454600490930201918255600180850154818401556002808601549084015560039485015494909201939093553382529091526040902080548061083c5761083c610f8c565b6000828152602080822060046000199490940193840201828155600181018390556002810183905560030191909155915560408051848152918201839052810184905233907f1dc8bb69df2b8e91fbdcbfcf93d951b3f0000f085a95fe3f7946d6161439245d9060600160405180910390a25050505061057f6001600055565b6108c4610d8a565b600082116109205760405162461bcd60e51b815260206004820152602360248201527f546f6b656e20616d6f756e74206d75737420626520677265617465722074686160448201526206e20360ec1b6064820152608401610457565b6000341161097a5760405162461bcd60e51b815260206004820152602160248201527f45544820616d6f756e74206d7573742062652067726561746572207468616e206044820152600360fc1b6064820152608401610457565b803410156109ca5760405162461bcd60e51b815260206004820152601960248201527f496e73756666696369656e74204554482070726f7669646564000000000000006044820152606401610457565b6040516323b872dd60e01b8152336004820152306024820152604481018390527f00000000000000000000000000000000000000000000000000000000000000006001600160a01b0316906323b872dd906064016020604051808303816000875af1158015610a3d573d6000803e3d6000fd5b505050506040513d601f19601f82011682018060405250810190610a619190610eee565b610aa55760405162461bcd60e51b8152602060048201526015602482015274151bdad95b881d1c985b9cd9995c8819985a5b1959605a1b6044820152606401610457565b60405163095ea7b360e01b815273091ad9e2e6e5ed44c1c66db50e49a601f9f36cf66004820152602481018390527f00000000000000000000000000000000000000000000000000000000000000006001600160a01b03169063095ea7b3906044016020604051808303816000875af1158015610b26573d6000803e3d6000fd5b505050506040513d601f19601f82011682018060405250810190610b4a9190610eee565b506000808073091ad9e2e6e5ed44c1c66db50e49a601f9f36cf663e8e337007f00000000000000000000000000000000000000000000000000000000000000006006602160991b0188346064610ba183605f610fa2565b610bab9190610fb9565b6064610bb834605f610fa2565b610bc29190610fb9565b30610bcf4261012c610f3c565b60405160e08a901b6001600160e01b03191681526001600160a01b039889166004820152968816602488015260448701959095526064860193909352608485019190915260a484015290921660c482015260e4810191909152610104016060604051808303816000875af1158015610c4b573d6000803e3d6000fd5b505050506040513d601f19601f82011682018060405250810190610c6f9190610fdb565b336000818152600160208181526040808420815160808101835289815280840189815281840189815242606084019081528454808901865594895286892093516004909502909301938455905195830195909555935160028083019190915593516003909101559383525290812080549497509295509093508392610cf5908490610f3c565b909155505034821015610d3a57336108fc610d108434610f79565b6040518115909202916000818181858888f19350505050158015610d38573d6000803e3d6000fd5b505b604080518481526020810184905290810182905233907f64b83944e79c3ce8d4c297411de637c3e102d064677aac0c163976ebdcd6f50e9060600160405180910390a250505061049a6001600055565b600260005403610dad57604051633ee5aeb560e01b815260040160405180910390fd5b6002600055565b6001600160a01b038116811461057f57600080fd5b600060208284031215610ddb57600080fd5b8135610de681610db4565b9392505050565b602080825282518282018190526000919060409081850190868401855b82811015610e4457815180518552868101518786015285810151868601526060908101519085015260809093019290850190600101610e0a565b5091979650505050505050565b60008060408385031215610e6457600080fd5b8235610e6f81610db4565b946020939093013593505050565b600060208284031215610e8f57600080fd5b5035919050565b60008060408385031215610ea957600080fd5b50508035926020909101359150565b600060208284031215610eca57600080fd5b8151610de681610db4565b600060208284031215610ee757600080fd5b5051919050565b600060208284031215610f0057600080fd5b81518015158114610de657600080fd5b634e487b7160e01b600052603260045260246000fd5b634e487b7160e01b600052601160045260246000fd5b80820180821115610f4f57610f4f610f26565b92915050565b60008060408385031215610f6857600080fd5b505080516020909101519092909150565b81810381811115610f4f57610f4f610f26565b634e487b7160e01b600052603160045260246000fd5b8082028115828204841417610f4f57610f4f610f26565b600082610fd657634e487b7160e01b600052601260045260246000fd5b500490565b600080600060608486031215610ff057600080fd5b835192506020840151915060408401519050925092509256fea2646970667358221220e2bf61f7bf7cf873d0b45cba7c552019fc5e5e6357ecd4ac3b88b993acdd696264736f6c63430008180033",
  "linkReferences": {},
  "deployedLinkReferences": {}
}