{
  "_format": "hh-sol-artifact-1",
  "contractName": "GXOTDAO",
  "sourceName": "contracts/GXOTDAO.sol",
  "abi": [
    {
      "inputs": [
        {
          "internalType": "address payable",
          "name": "_gxotToken",
          "type": "address"
        }
      ],
      "stateMutability": "nonpayable",
      "type": "constructor"
    },
    {
      "inputs": [],
      "name": "ReentrancyGuardReentrantCall",
      "type": "error"
    },
    {
      "anonymous": false,
      "inputs": [
        {
          "indexed": true,
          "internalType": "uint256",
          "name": "proposalId",
          "type": "uint256"
        },
        {
          "indexed": true,
          "internalType": "address",
          "name": "proposer",
          "type": "address"
        },
        {
          "indexed": false,
          "internalType": "string",
          "name": "description",
          "type": "string"
        }
      ],
      "name": "ProposalCreated",
      "type": "event"
    },
    {
      "anonymous": false,
      "inputs": [
        {
          "indexed": true,
          "internalType": "uint256",
          "name": "proposalId",
          "type": "uint256"
        }
      ],
      "name": "ProposalExecuted",
      "type": "event"
    },
    {
      "anonymous": false,
      "inputs": [
        {
          "indexed": true,
          "internalType": "uint256",
          "name": "proposalId",
          "type": "uint256"
        },
        {
          "indexed": true,
          "internalType": "address",
          "name": "voter",
          "type": "address"
        },
        {
          "indexed": false,
          "internalType": "bool",
          "name": "support",
          "type": "bool"
        },
        {
          "indexed": false,
          "internalType": "uint256",
          "name": "votes",
          "type": "uint256"
        }
      ],
      "name": "VoteCast",
      "type": "event"
    },
    {
      "inputs": [],
      "name": "MIN_PROPOSAL_THRESHOLD",
      "outputs": [
        {
          "internalType": "uint256",
          "name": "",
          "type": "uint256"
        }
      ],
      "stateMutability": "view",
      "type": "function"
    },
    {
      "inputs": [],
      "name": "QUORUM_PERCENTAGE",
      "outputs": [
        {
          "internalType": "uint256",
          "name": "",
          "type": "uint256"
        }
      ],
      "stateMutability": "view",
      "type": "function"
    },
    {
      "inputs": [],
      "name": "VOTING_PERIOD",
      "outputs": [
        {
          "internalType": "uint256",
          "name": "",
          "type": "uint256"
        }
      ],
      "stateMutability": "view",
      "type": "function"
    },
    {
      "inputs": [
        {
          "internalType": "string",
          "name": "description",
          "type": "string"
        }
      ],
      "name": "createProposal",
      "outputs": [],
      "stateMutability": "nonpayable",
      "type": "function"
    },
    {
      "inputs": [
        {
          "internalType": "uint256",
          "name": "proposalId",
          "type": "uint256"
        }
      ],
      "name": "executeProposal",
      "outputs": [],
      "stateMutability": "nonpayable",
      "type": "function"
    },
    {
      "inputs": [
        {
          "internalType": "uint256",
          "name": "proposalId",
          "type": "uint256"
        }
      ],
      "name": "getProposal",
      "outputs": [
        {
          "internalType": "uint256",
          "name": "id",
          "type": "uint256"
        },
        {
          "internalType": "address",
          "name": "proposer",
          "type": "address"
        },
        {
          "internalType": "string",
          "name": "description",
          "type": "string"
        },
        {
          "internalType": "uint256",
          "name": "forVotes",
          "type": "uint256"
        },
        {
          "internalType": "uint256",
          "name": "againstVotes",
          "type": "uint256"
        },
        {
          "internalType": "uint256",
          "name": "startTime",
          "type": "uint256"
        },
        {
          "internalType": "uint256",
          "name": "endTime",
          "type": "uint256"
        },
        {
          "internalType": "bool",
          "name": "executed",
          "type": "bool"
        }
      ],
      "stateMutability": "view",
      "type": "function"
    },
    {
      "inputs": [
        {
          "internalType": "address",
          "name": "voter",
          "type": "address"
        }
      ],
      "name": "getVotingPower",
      "outputs": [
        {
          "internalType": "uint256",
          "name": "",
          "type": "uint256"
        }
      ],
      "stateMutability": "view",
      "type": "function"
    },
    {
      "inputs": [],
      "name": "gxotToken",
      "outputs": [
        {
          "internalType": "contract GXOT",
          "name": "",
          "type": "address"
        }
      ],
      "stateMutability": "view",
      "type": "function"
    },
    {
      "inputs": [
        {
          "internalType": "uint256",
          "name": "proposalId",
          "type": "uint256"
        },
        {
          "internalType": "address",
          "name": "voter",
          "type": "address"
        }
      ],
      "name": "hasVoted",
      "outputs": [
        {
          "internalType": "bool",
          "name": "",
          "type": "bool"
        }
      ],
      "stateMutability": "view",
      "type": "function"
    },
    {
      "inputs": [],
      "name": "proposalCount",
      "outputs": [
        {
          "internalType": "uint256",
          "name": "",
          "type": "uint256"
        }
      ],
      "stateMutability": "view",
      "type": "function"
    },
    {
      "inputs": [
        {
          "internalType": "uint256",
          "name": "",
          "type": "uint256"
        }
      ],
      "name": "proposals",
      "outputs": [
        {
          "internalType": "uint256",
          "name": "id",
          "type": "uint256"
        },
        {
          "internalType": "address",
          "name": "proposer",
          "type": "address"
        },
        {
          "internalType": "string",
          "name": "description",
          "type": "string"
        },
        {
          "internalType": "uint256",
          "name": "forVotes",
          "type": "uint256"
        },
        {
          "internalType": "uint256",
          "name": "againstVotes",
          "type": "uint256"
        },
        {
          "internalType": "uint256",
          "name": "startTime",
          "type": "uint256"
        },
        {
          "internalType": "uint256",
          "name": "endTime",
          "type": "uint256"
        },
        {
          "internalType": "bool",
          "name": "executed",
          "type": "bool"
        }
      ],
      "stateMutability": "view",
      "type": "function"
    },
    {
      "inputs": [
        {
          "internalType": "uint256",
          "name": "proposalId",
          "type": "uint256"
        },
        {
          "internalType": "bool",
          "name": "support",
          "type": "bool"
        }
      ],
      "name": "vote",
      "outputs": [],
      "stateMutability": "nonpayable",
      "type": "function"
    }
  ],
  "bytecode": "0x60a060405234801561001057600080fd5b5060405161127f38038061127f83398101604081905261002f91610045565b60016000556001600160a01b0316608052610075565b60006020828403121561005757600080fd5b81516001600160a01b038116811461006e57600080fd5b9392505050565b6080516111c56100ba600039600081816101ac015281816103da01528181610588015281816106610152818161083f015281816109d60152610be501526111c56000f3fe608060405234801561001057600080fd5b50600436106100b45760003560e01c8063bb4d443611610071578063bb4d44361461015d578063c7f758a814610170578063c9d27afe14610183578063da35c66414610196578063ee8a7c151461019f578063f67a1d93146101a757600080fd5b8063013cf08b146100b95780630d61b519146100e957806343859632146100fe57806349c2a1a614610121578063791f5d2314610134578063b1610d7e14610153575b600080fd5b6100cc6100c7366004610d7f565b6101e6565b6040516100e0989796959493929190610dde565b60405180910390f35b6100fc6100f7366004610d7f565b6102be565b005b61011161010c366004610e53565b610540565b60405190151581526020016100e0565b6100fc61012f366004610e95565b610570565b61014569d3c21bcecceda100000081565b6040519081526020016100e0565b61014562093a8081565b61014561016b366004610f46565b61081d565b6100cc61017e366004610d7f565b6108ac565b6100fc610191366004610f68565b6109be565b61014560025481565b610145600a81565b6101ce7f000000000000000000000000000000000000000000000000000000000000000081565b6040516001600160a01b0390911681526020016100e0565b60016020819052600091825260409091208054918101546002820180546001600160a01b03909216929161021990610f9d565b80601f016020809104026020016040519081016040528092919081815260200182805461024590610f9d565b80156102925780601f1061026757610100808354040283529160200191610292565b820191906000526020600020905b81548152906001019060200180831161027557829003601f168201915b505050600384015460048501546005860154600687015460079097015495969295919450925060ff1688565b6000818152600160205260408120805490910361031c5760405162461bcd60e51b8152602060048201526017602482015276141c9bdc1bdcd85b08191bd95cc81b9bdd08195e1a5cdd604a1b60448201526064015b60405180910390fd5b806006015442116103655760405162461bcd60e51b8152602060048201526013602482015272566f74696e67207374696c6c2061637469766560681b6044820152606401610313565b600781015460ff16156103ba5760405162461bcd60e51b815260206004820152601960248201527f50726f706f73616c20616c7265616479206578656375746564000000000000006044820152606401610313565b6000816004015482600301546103d09190610fed565b905060006064600a7f00000000000000000000000000000000000000000000000000000000000000006001600160a01b03166318160ddd6040518163ffffffff1660e01b8152600401602060405180830381865afa158015610436573d6000803e3d6000fd5b505050506040513d601f19601f8201168201806040525081019061045a9190611000565b6104649190611019565b61046e9190611030565b9050808210156104b55760405162461bcd60e51b8152602060048201526012602482015271145d5bdc9d5b481b9bdd081c995858da195960721b6044820152606401610313565b82600401548360030154116105005760405162461bcd60e51b8152602060048201526011602482015270141c9bdc1bdcd85b081c995a9958dd1959607a1b6044820152606401610313565b60078301805460ff1916600117905560405184907f712ae1383f79ac853f8d882153778e0260ef8f03b504e2866e0593e04d2b291f90600090a250505050565b60008281526001602090815260408083206001600160a01b038516845260080190915290205460ff165b92915050565b6040516370a0823160e01b81523360048201526000907f00000000000000000000000000000000000000000000000000000000000000006001600160a01b0316906370a0823190602401602060405180830381865afa1580156105d7573d6000803e3d6000fd5b505050506040513d601f19601f820116820180604052508101906105fb9190611000565b116106405760405162461bcd60e51b81526020600482015260156024820152744d75737420686f6c642047584f5420746f6b656e7360581b6044820152606401610313565b6040516370a0823160e01b815233600482015269d3c21bcecceda1000000907f00000000000000000000000000000000000000000000000000000000000000006001600160a01b0316906370a0823190602401602060405180830381865afa1580156106b0573d6000803e3d6000fd5b505050506040513d601f19601f820116820180604052508101906106d49190611000565b10156107225760405162461bcd60e51b815260206004820181905260248201527f496e73756666696369656e7420746f6b656e7320666f722070726f706f73616c6044820152606401610313565b60008151116107735760405162461bcd60e51b815260206004820152601b60248201527f4465736372697074696f6e2063616e6e6f7420626520656d70747900000000006044820152606401610313565b6002805490600061078383611052565b9091555050600280546000818152600160208190526040909120918255810180546001600160a01b031916331790559081016107bf83826110bc565b5042600582018190556107d69062093a8090610fed565b60068201556002546040513391907f7585f467599d0f008985f231af99293be388626ac16ca59505c2f8f88969cd639061081190869061117c565b60405180910390a35050565b6040516370a0823160e01b81526001600160a01b0382811660048301526000917f0000000000000000000000000000000000000000000000000000000000000000909116906370a0823190602401602060405180830381865afa158015610888573d6000803e3d6000fd5b505050506040513d601f19601f8201168201806040525081019061056a9190611000565b6000806060600080600080600080600160008b8152602001908152602001600020905080600001548160010160009054906101000a90046001600160a01b03168260020183600301548460040154856005015486600601548760070160009054906101000a900460ff1685805461092290610f9d565b80601f016020809104026020016040519081016040528092919081815260200182805461094e90610f9d565b801561099b5780601f106109705761010080835404028352916020019161099b565b820191906000526020600020905b81548152906001019060200180831161097e57829003601f168201915b505050505095509850985098509850985098509850985050919395975091939597565b6040516370a0823160e01b81523360048201526000907f00000000000000000000000000000000000000000000000000000000000000006001600160a01b0316906370a0823190602401602060405180830381865afa158015610a25573d6000803e3d6000fd5b505050506040513d601f19601f82011682018060405250810190610a499190611000565b11610a8e5760405162461bcd60e51b81526020600482015260156024820152744d75737420686f6c642047584f5420746f6b656e7360581b6044820152606401610313565b610a96610d55565b60008281526001602052604081208054909103610aef5760405162461bcd60e51b8152602060048201526017602482015276141c9bdc1bdcd85b08191bd95cc81b9bdd08195e1a5cdd604a1b6044820152606401610313565b8060050154421015610b385760405162461bcd60e51b8152602060048201526012602482015271159bdd1a5b99c81b9bdd081cdd185c9d195960721b6044820152606401610313565b8060060154421115610b7b5760405162461bcd60e51b815260206004820152600c60248201526b159bdd1a5b99c8195b99195960a21b6044820152606401610313565b33600090815260088201602052604090205460ff1615610bcd5760405162461bcd60e51b815260206004820152600d60248201526c105b1c9958591e481d9bdd1959609a1b6044820152606401610313565b6040516370a0823160e01b81523360048201526000907f00000000000000000000000000000000000000000000000000000000000000006001600160a01b0316906370a0823190602401602060405180830381865afa158015610c34573d6000803e3d6000fd5b505050506040513d601f19601f82011682018060405250810190610c589190611000565b905060008111610c9c5760405162461bcd60e51b815260206004820152600f60248201526e2737903b37ba34b733903837bbb2b960891b6044820152606401610313565b3360009081526008830160209081526040808320805460ff191660011790556009850190915290208190558215610cec5780826003016000828254610ce19190610fed565b90915550610d069050565b80826004016000828254610d009190610fed565b90915550505b60408051841515815260208101839052339186917fcbdf6214089cba887ecbf35a0b6a734589959c9763342c756bb2a80ca2bc9f6e910160405180910390a35050610d516001600055565b5050565b600260005403610d7857604051633ee5aeb560e01b815260040160405180910390fd5b6002600055565b600060208284031215610d9157600080fd5b5035919050565b6000815180845260005b81811015610dbe57602081850181015186830182015201610da2565b506000602082860101526020601f19601f83011685010191505092915050565b8881526001600160a01b038816602082015261010060408201819052600090610e098382018a610d98565b60608401989098525050608081019490945260a084019290925260c0830152151560e0909101529392505050565b80356001600160a01b0381168114610e4e57600080fd5b919050565b60008060408385031215610e6657600080fd5b82359150610e7660208401610e37565b90509250929050565b634e487b7160e01b600052604160045260246000fd5b600060208284031215610ea757600080fd5b813567ffffffffffffffff80821115610ebf57600080fd5b818401915084601f830112610ed357600080fd5b813581811115610ee557610ee5610e7f565b604051601f8201601f19908116603f01168101908382118183101715610f0d57610f0d610e7f565b81604052828152876020848701011115610f2657600080fd5b826020860160208301376000928101602001929092525095945050505050565b600060208284031215610f5857600080fd5b610f6182610e37565b9392505050565b60008060408385031215610f7b57600080fd5b8235915060208301358015158114610f9257600080fd5b809150509250929050565b600181811c90821680610fb157607f821691505b602082108103610fd157634e487b7160e01b600052602260045260246000fd5b50919050565b634e487b7160e01b600052601160045260246000fd5b8082018082111561056a5761056a610fd7565b60006020828403121561101257600080fd5b5051919050565b808202811582820484141761056a5761056a610fd7565b60008261104d57634e487b7160e01b600052601260045260246000fd5b500490565b60006001820161106457611064610fd7565b5060010190565b601f8211156110b7576000816000526020600020601f850160051c810160208610156110945750805b601f850160051c820191505b818110156110b3578281556001016110a0565b5050505b505050565b815167ffffffffffffffff8111156110d6576110d6610e7f565b6110ea816110e48454610f9d565b8461106b565b602080601f83116001811461111f57600084156111075750858301515b600019600386901b1c1916600185901b1785556110b3565b600085815260208120601f198616915b8281101561114e5788860151825594840194600190910190840161112f565b508582101561116c5787850151600019600388901b60f8161c191681555b5050505050600190811b01905550565b602081526000610f616020830184610d9856fea2646970667358221220df796b652bd9ba63b9e619b8d4ea6ce0c86bd830dc677fb686d888e58041ede964736f6c63430008180033",
  "linkReferences": {},
  "deployedLinkReferences": {}
}