{
  "_format": "hh-sol-artifact-1",
  "contractName": "GXOT",
  "sourceName": "contracts/GXOT.sol",
  "abi": [
    {
      "inputs": [
        {
          "internalType": "address",
          "name": "_teamWallet",
          "type": "address"
        }
      ],
      "stateMutability": "nonpayable",
      "type": "constructor"
    },
    {
      "inputs": [
        {
          "internalType": "address",
          "name": "spender",
          "type": "address"
        },
        {
          "internalType": "uint256",
          "name": "allowance",
          "type": "uint256"
        },
        {
          "internalType": "uint256",
          "name": "needed",
          "type": "uint256"
        }
      ],
      "name": "ERC20InsufficientAllowance",
      "type": "error"
    },
    {
      "inputs": [
        {
          "internalType": "address",
          "name": "sender",
          "type": "address"
        },
        {
          "internalType": "uint256",
          "name": "balance",
          "type": "uint256"
        },
        {
          "internalType": "uint256",
          "name": "needed",
          "type": "uint256"
        }
      ],
      "name": "ERC20InsufficientBalance",
      "type": "error"
    },
    {
      "inputs": [
        {
          "internalType": "address",
          "name": "approver",
          "type": "address"
        }
      ],
      "name": "ERC20InvalidApprover",
      "type": "error"
    },
    {
      "inputs": [
        {
          "internalType": "address",
          "name": "receiver",
          "type": "address"
        }
      ],
      "name": "ERC20InvalidReceiver",
      "type": "error"
    },
    {
      "inputs": [
        {
          "internalType": "address",
          "name": "sender",
          "type": "address"
        }
      ],
      "name": "ERC20InvalidSender",
      "type": "error"
    },
    {
      "inputs": [
        {
          "internalType": "address",
          "name": "spender",
          "type": "address"
        }
      ],
      "name": "ERC20InvalidSpender",
      "type": "error"
    },
    {
      "inputs": [
        {
          "internalType": "address",
          "name": "owner",
          "type": "address"
        }
      ],
      "name": "OwnableInvalidOwner",
      "type": "error"
    },
    {
      "inputs": [
        {
          "internalType": "address",
          "name": "account",
          "type": "address"
        }
      ],
      "name": "OwnableUnauthorizedAccount",
      "type": "error"
    },
    {
      "inputs": [],
      "name": "ReentrancyGuardReentrantCall",
      "type": "error"
    },
    {
      "anonymous": false,
      "inputs": [
        {
          "indexed": true,
          "internalType": "address",
          "name": "owner",
          "type": "address"
        },
        {
          "indexed": true,
          "internalType": "address",
          "name": "spender",
          "type": "address"
        },
        {
          "indexed": false,
          "internalType": "uint256",
          "name": "value",
          "type": "uint256"
        }
      ],
      "name": "Approval",
      "type": "event"
    },
    {
      "anonymous": false,
      "inputs": [
        {
          "indexed": false,
          "internalType": "address",
          "name": "daoContract",
          "type": "address"
        }
      ],
      "name": "DAOActivated",
      "type": "event"
    },
    {
      "anonymous": false,
      "inputs": [
        {
          "indexed": false,
          "internalType": "address",
          "name": "provider",
          "type": "address"
        },
        {
          "indexed": false,
          "internalType": "uint256",
          "name": "amount",
          "type": "uint256"
        }
      ],
      "name": "LiquidityAdded",
      "type": "event"
    },
    {
      "anonymous": false,
      "inputs": [
        {
          "indexed": false,
          "internalType": "address",
          "name": "provider",
          "type": "address"
        },
        {
          "indexed": false,
          "internalType": "uint256",
          "name": "amount",
          "type": "uint256"
        }
      ],
      "name": "LiquidityRemoved",
      "type": "event"
    },
    {
      "anonymous": false,
      "inputs": [
        {
          "indexed": true,
          "internalType": "address",
          "name": "previousOwner",
          "type": "address"
        },
        {
          "indexed": true,
          "internalType": "address",
          "name": "newOwner",
          "type": "address"
        }
      ],
      "name": "OwnershipTransferred",
      "type": "event"
    },
    {
      "anonymous": false,
      "inputs": [
        {
          "indexed": false,
          "internalType": "address",
          "name": "teamWallet",
          "type": "address"
        },
        {
          "indexed": false,
          "internalType": "uint256",
          "name": "amount",
          "type": "uint256"
        }
      ],
      "name": "TeamTokensDistributed",
      "type": "event"
    },
    {
      "anonymous": false,
      "inputs": [
        {
          "indexed": true,
          "internalType": "address",
          "name": "from",
          "type": "address"
        },
        {
          "indexed": true,
          "internalType": "address",
          "name": "to",
          "type": "address"
        },
        {
          "indexed": false,
          "internalType": "uint256",
          "name": "value",
          "type": "uint256"
        }
      ],
      "name": "Transfer",
      "type": "event"
    },
    {
      "inputs": [],
      "name": "DEX_ALLOCATION",
      "outputs": [
        {
          "internalType": "uint256",
          "name": "",
          "type": "uint256"
        }
      ],
      "stateMutability": "view",
      "type": "function"
    },
    {
      "inputs": [],
      "name": "MAX_SUPPLY",
      "outputs": [
        {
          "internalType": "uint256",
          "name": "",
          "type": "uint256"
        }
      ],
      "stateMutability": "view",
      "type": "function"
    },
    {
      "inputs": [],
      "name": "SWAP_ROUTER",
      "outputs": [
        {
          "internalType": "address",
          "name": "",
          "type": "address"
        }
      ],
      "stateMutability": "view",
      "type": "function"
    },
    {
      "inputs": [],
      "name": "TEAM_ALLOCATION",
      "outputs": [
        {
          "internalType": "uint256",
          "name": "",
          "type": "uint256"
        }
      ],
      "stateMutability": "view",
      "type": "function"
    },
    {
      "inputs": [],
      "name": "USDC_ADDRESS",
      "outputs": [
        {
          "internalType": "address",
          "name": "",
          "type": "address"
        }
      ],
      "stateMutability": "view",
      "type": "function"
    },
    {
      "inputs": [],
      "name": "WETH_ADDRESS",
      "outputs": [
        {
          "internalType": "address",
          "name": "",
          "type": "address"
        }
      ],
      "stateMutability": "view",
      "type": "function"
    },
    {
      "inputs": [],
      "name": "WLD_ADDRESS",
      "outputs": [
        {
          "internalType": "address",
          "name": "",
          "type": "address"
        }
      ],
      "stateMutability": "view",
      "type": "function"
    },
    {
      "inputs": [
        {
          "internalType": "address",
          "name": "_daoContract",
          "type": "address"
        }
      ],
      "name": "activateDAO",
      "outputs": [],
      "stateMutability": "nonpayable",
      "type": "function"
    },
    {
      "inputs": [],
      "name": "addLiquidityToDEX",
      "outputs": [],
      "stateMutability": "nonpayable",
      "type": "function"
    },
    {
      "inputs": [
        {
          "internalType": "address",
          "name": "owner",
          "type": "address"
        },
        {
          "internalType": "address",
          "name": "spender",
          "type": "address"
        }
      ],
      "name": "allowance",
      "outputs": [
        {
          "internalType": "uint256",
          "name": "",
          "type": "uint256"
        }
      ],
      "stateMutability": "view",
      "type": "function"
    },
    {
      "inputs": [
        {
          "internalType": "address",
          "name": "spender",
          "type": "address"
        },
        {
          "internalType": "uint256",
          "name": "value",
          "type": "uint256"
        }
      ],
      "name": "approve",
      "outputs": [
        {
          "internalType": "bool",
          "name": "",
          "type": "bool"
        }
      ],
      "stateMutability": "nonpayable",
      "type": "function"
    },
    {
      "inputs": [
        {
          "internalType": "address",
          "name": "account",
          "type": "address"
        }
      ],
      "name": "balanceOf",
      "outputs": [
        {
          "internalType": "uint256",
          "name": "",
          "type": "uint256"
        }
      ],
      "stateMutability": "view",
      "type": "function"
    },
    {
      "inputs": [],
      "name": "daoContract",
      "outputs": [
        {
          "internalType": "address",
          "name": "",
          "type": "address"
        }
      ],
      "stateMutability": "view",
      "type": "function"
    },
    {
      "inputs": [],
      "name": "decimals",
      "outputs": [
        {
          "internalType": "uint8",
          "name": "",
          "type": "uint8"
        }
      ],
      "stateMutability": "view",
      "type": "function"
    },
    {
      "inputs": [],
      "name": "emergencyWithdraw",
      "outputs": [],
      "stateMutability": "nonpayable",
      "type": "function"
    },
    {
      "inputs": [],
      "name": "getContractBalance",
      "outputs": [
        {
          "internalType": "uint256",
          "name": "",
          "type": "uint256"
        }
      ],
      "stateMutability": "view",
      "type": "function"
    },
    {
      "inputs": [
        {
          "internalType": "address",
          "name": "provider",
          "type": "address"
        }
      ],
      "name": "getLiquidityInfo",
      "outputs": [
        {
          "internalType": "uint256",
          "name": "",
          "type": "uint256"
        }
      ],
      "stateMutability": "view",
      "type": "function"
    },
    {
      "inputs": [],
      "name": "isDAOActive",
      "outputs": [
        {
          "internalType": "bool",
          "name": "",
          "type": "bool"
        }
      ],
      "stateMutability": "view",
      "type": "function"
    },
    {
      "inputs": [],
      "name": "liquidityAdded",
      "outputs": [
        {
          "internalType": "bool",
          "name": "",
          "type": "bool"
        }
      ],
      "stateMutability": "view",
      "type": "function"
    },
    {
      "inputs": [
        {
          "internalType": "address",
          "name": "",
          "type": "address"
        }
      ],
      "name": "liquidityProviders",
      "outputs": [
        {
          "internalType": "uint256",
          "name": "",
          "type": "uint256"
        }
      ],
      "stateMutability": "view",
      "type": "function"
    },
    {
      "inputs": [],
      "name": "name",
      "outputs": [
        {
          "internalType": "string",
          "name": "",
          "type": "string"
        }
      ],
      "stateMutability": "view",
      "type": "function"
    },
    {
      "inputs": [],
      "name": "owner",
      "outputs": [
        {
          "internalType": "address",
          "name": "",
          "type": "address"
        }
      ],
      "stateMutability": "view",
      "type": "function"
    },
    {
      "inputs": [
        {
          "internalType": "uint256",
          "name": "tokenAmount",
          "type": "uint256"
        }
      ],
      "name": "provideLiquidity",
      "outputs": [],
      "stateMutability": "payable",
      "type": "function"
    },
    {
      "inputs": [
        {
          "internalType": "uint256",
          "name": "tokenAmount",
          "type": "uint256"
        }
      ],
      "name": "removeLiquidity",
      "outputs": [],
      "stateMutability": "nonpayable",
      "type": "function"
    },
    {
      "inputs": [],
      "name": "renounceOwnership",
      "outputs": [],
      "stateMutability": "nonpayable",
      "type": "function"
    },
    {
      "inputs": [],
      "name": "symbol",
      "outputs": [
        {
          "internalType": "string",
          "name": "",
          "type": "string"
        }
      ],
      "stateMutability": "view",
      "type": "function"
    },
    {
      "inputs": [],
      "name": "teamWallet",
      "outputs": [
        {
          "internalType": "address",
          "name": "",
          "type": "address"
        }
      ],
      "stateMutability": "view",
      "type": "function"
    },
    {
      "inputs": [],
      "name": "totalLiquidityProvided",
      "outputs": [
        {
          "internalType": "uint256",
          "name": "",
          "type": "uint256"
        }
      ],
      "stateMutability": "view",
      "type": "function"
    },
    {
      "inputs": [],
      "name": "totalSupply",
      "outputs": [
        {
          "internalType": "uint256",
          "name": "",
          "type": "uint256"
        }
      ],
      "stateMutability": "view",
      "type": "function"
    },
    {
      "inputs": [
        {
          "internalType": "address",
          "name": "to",
          "type": "address"
        },
        {
          "internalType": "uint256",
          "name": "value",
          "type": "uint256"
        }
      ],
      "name": "transfer",
      "outputs": [
        {
          "internalType": "bool",
          "name": "",
          "type": "bool"
        }
      ],
      "stateMutability": "nonpayable",
      "type": "function"
    },
    {
      "inputs": [
        {
          "internalType": "address",
          "name": "from",
          "type": "address"
        },
        {
          "internalType": "address",
          "name": "to",
          "type": "address"
        },
        {
          "internalType": "uint256",
          "name": "value",
          "type": "uint256"
        }
      ],
      "name": "transferFrom",
      "outputs": [
        {
          "internalType": "bool",
          "name": "",
          "type": "bool"
        }
      ],
      "stateMutability": "nonpayable",
      "type": "function"
    },
    {
      "inputs": [
        {
          "internalType": "address",
          "name": "newOwner",
          "type": "address"
        }
      ],
      "name": "transferOwnership",
      "outputs": [],
      "stateMutability": "nonpayable",
      "type": "function"
    },
    {
      "inputs": [
        {
          "internalType": "address",
          "name": "newTeamWallet",
          "type": "address"
        }
      ],
      "name": "updateTeamWallet",
      "outputs": [],
      "stateMutability": "nonpayable",
      "type": "function"
    },
    {
      "stateMutability": "payable",
      "type": "receive"
    }
  ],
  "bytecode": "0x60806040523480156200001157600080fd5b5060405162001aa438038062001aa483398101604081905262000034916200043a565b60408051808201825260048082526311d613d560e21b60208084018290528451808601909552918452908301523391600362000071838262000512565b50600462000080828262000512565b5050506001600160a01b038116620000b357604051631e4fbdf760e01b8152600060048201526024015b60405180910390fd5b620000be816200020d565b5060016006556001600160a01b0381166200011c5760405162461bcd60e51b815260206004820152601360248201527f496e76616c6964207465616d2077616c6c6574000000000000000000000000006044820152606401620000aa565b600880546001600160a01b0319166001600160a01b0383161790556200014f306b09b18ab5df7180b6b80000006200025f565b6008546200018f9030906001600160a01b031660646200017d6b09b18ab5df7180b6b8000000600a620005f4565b62000189919062000614565b6200029d565b6008547f3e97f89408ba4ccd88f892e4b2d01d5ec3cff2460438899aa18779b82fc05919906001600160a01b03166064620001d86b09b18ab5df7180b6b8000000600a620005f4565b620001e4919062000614565b604080516001600160a01b03909316835260208301919091520160405180910390a1506200064d565b600580546001600160a01b038381166001600160a01b0319831681179093556040519116919082907f8be0079c531659141344cd1fd0a4f28419497f9722a3daafe3b4186f6b6457e090600090a35050565b6001600160a01b0382166200028b5760405163ec442f0560e01b815260006004820152602401620000aa565b620002996000838362000307565b5050565b6001600160a01b038316620002c957604051634b637e8f60e11b815260006004820152602401620000aa565b6001600160a01b038216620002f55760405163ec442f0560e01b815260006004820152602401620000aa565b6200030283838362000307565b505050565b6001600160a01b038316620003365780600260008282546200032a919062000637565b90915550620003aa9050565b6001600160a01b038316600090815260208190526040902054818110156200038b5760405163391434e360e21b81526001600160a01b03851660048201526024810182905260448101839052606401620000aa565b6001600160a01b03841660009081526020819052604090209082900390555b6001600160a01b038216620003c857600280548290039055620003e7565b6001600160a01b03821660009081526020819052604090208054820190555b816001600160a01b0316836001600160a01b03167fddf252ad1be2c89b69c2b068fc378daa952ba7f163c4a11628f55a4df523b3ef836040516200042d91815260200190565b60405180910390a3505050565b6000602082840312156200044d57600080fd5b81516001600160a01b03811681146200046557600080fd5b9392505050565b634e487b7160e01b600052604160045260246000fd5b600181811c908216806200049757607f821691505b602082108103620004b857634e487b7160e01b600052602260045260246000fd5b50919050565b601f82111562000302576000816000526020600020601f850160051c81016020861015620004e95750805b601f850160051c820191505b818110156200050a57828155600101620004f5565b505050505050565b81516001600160401b038111156200052e576200052e6200046c565b62000546816200053f845462000482565b84620004be565b602080601f8311600181146200057e5760008415620005655750858301515b600019600386901b1c1916600185901b1785556200050a565b600085815260208120601f198616915b82811015620005af578886015182559484019460019091019084016200058e565b5085821015620005ce5787850151600019600388901b60f8161c191681555b5050505050600190811b01905550565b634e487b7160e01b600052601160045260246000fd5b80820281158282048414176200060e576200060e620005de565b92915050565b6000826200063257634e487b7160e01b600052601260045260246000fd5b500490565b808201808211156200060e576200060e620005de565b611447806200065d6000396000f3fe6080604052600436106101f25760003560e01c80637ebef45a1161010d578063d9443923116100a0578063dfed13481161006f578063dfed1348146105f2578063eb521a4c14610608578063f2fde38b1461061b578063f397551d1461063b578063fd99cbed1461065057600080fd5b8063d944392314610549578063db2e21bc1461056a578063dbd942671461057f578063dd62ed3e146105ac57600080fd5b80639c8f9f23116100dc5780639c8f9f23146104b9578063a9059cbb146104d9578063bb09d9b7146104f9578063c60058931461052157600080fd5b80637ebef45a1461043d5780638da5cb5b1461046557806393b5eccd1461048357806395d89b41146104a457600080fd5b806332cb6b0c1161018557806370a082311161015457806370a082311461039c578063715018a6146103d25780637c0f8456146103e75780637cb332bb1461041d57600080fd5b806332cb6b0c1461031a5780634a7ffcbc1461033a578063599270441461035a5780636f9fb98a1461037a57600080fd5b80631a1f106e116101c15780631a1f106e146102a75780631b14f4eb146102c957806323b872dd146102de578063313ce567146102fe57600080fd5b8063040141e5146101fe57806306fdde0314610236578063095ea7b31461025857806318160ddd1461028857600080fd5b366101f957005b600080fd5b34801561020a57600080fd5b506102196006602160991b0181565b6040516001600160a01b0390911681526020015b60405180910390f35b34801561024257600080fd5b5061024b610665565b60405161022d9190611223565b34801561026457600080fd5b5061027861027336600461128e565b6106f7565b604051901515815260200161022d565b34801561029457600080fd5b506002545b60405190815260200161022d565b3480156102b357600080fd5b506102c76102c23660046112b8565b610711565b005b3480156102d557600080fd5b50610299610832565b3480156102ea57600080fd5b506102786102f93660046112da565b610858565b34801561030a57600080fd5b506040516012815260200161022d565b34801561032657600080fd5b506102996b09b18ab5df7180b6b800000081565b34801561034657600080fd5b50600754610219906001600160a01b031681565b34801561036657600080fd5b50600854610219906001600160a01b031681565b34801561038657600080fd5b5030600090815260208190526040902054610299565b3480156103a857600080fd5b506102996103b73660046112b8565b6001600160a01b031660009081526020819052604090205490565b3480156103de57600080fd5b506102c761087c565b3480156103f357600080fd5b506102996104023660046112b8565b6001600160a01b031660009081526009602052604090205490565b34801561042957600080fd5b506102c76104383660046112b8565b610890565b34801561044957600080fd5b50610219732cfc85d8e48f8eab294be644d9e25c303086300381565b34801561047157600080fd5b506005546001600160a01b0316610219565b34801561048f57600080fd5b5060085461027890600160a01b900460ff1681565b3480156104b057600080fd5b5061024b61095d565b3480156104c557600080fd5b506102c76104d4366004611316565b61096c565b3480156104e557600080fd5b506102786104f436600461128e565b610aac565b34801561050557600080fd5b506102197379a02482a880bce3f13e09da970dc34db4cd24d181565b34801561052d57600080fd5b5061021973091ad9e2e6e5ed44c1c66db50e49a601f9f36cf681565b34801561055557600080fd5b5060085461027890600160a81b900460ff1681565b34801561057657600080fd5b506102c7610aba565b34801561058b57600080fd5b5061029961059a3660046112b8565b60096020526000908152604090205481565b3480156105b857600080fd5b506102996105c736600461132f565b6001600160a01b03918216600090815260016020908152604080832093909416825291909152205490565b3480156105fe57600080fd5b50610299600a5481565b6102c7610616366004611316565b610b49565b34801561062757600080fd5b506102c76106363660046112b8565b610cc7565b34801561064757600080fd5b506102c7610d02565b34801561065c57600080fd5b50610299610e72565b60606003805461067490611362565b80601f01602080910402602001604051908101604052809291908181526020018280546106a090611362565b80156106ed5780601f106106c2576101008083540402835291602001916106ed565b820191906000526020600020905b8154815290600101906020018083116106d057829003601f168201915b5050505050905090565b600033610705818585610e8b565b60019150505b92915050565b610719610e9d565b6001600160a01b03811661076b5760405162461bcd60e51b8152602060048201526014602482015273125b9d985b1a5908111053c818dbdb9d1c9858dd60621b60448201526064015b60405180910390fd5b600854600160a01b900460ff16156107ba5760405162461bcd60e51b815260206004820152601260248201527144414f20616c72656164792061637469766560701b6044820152606401610762565b600780546001600160a01b0383166001600160a01b03199091161790556008805460ff60a01b1916600160a01b1790556107f381610eca565b6040516001600160a01b03821681527fbd5ecb307fc94a9f442f76819edd57bfcf30d7066f6c2cc24b4c4f930433c2819060200160405180910390a150565b606461084b6b09b18ab5df7180b6b8000000605a6113b2565b61085591906113c9565b81565b600033610866858285610f1c565b610871858585610f9b565b506001949350505050565b610884610e9d565b61088e6000610eca565b565b6007546001600160a01b03163314806108b357506005546001600160a01b031633145b6108f35760405162461bcd60e51b815260206004820152601160248201527027b7363c902220a79037b91037bbb732b960791b6044820152606401610762565b6001600160a01b03811661093b5760405162461bcd60e51b815260206004820152600f60248201526e496e76616c6964206164647265737360881b6044820152606401610762565b600880546001600160a01b0319166001600160a01b0392909216919091179055565b60606004805461067490611362565b610974610ffa565b600081116109c45760405162461bcd60e51b815260206004820152601d60248201527f416d6f756e74206d7573742062652067726561746572207468616e20300000006044820152606401610762565b33600090815260096020526040902054811115610a1c5760405162461bcd60e51b8152602060048201526016602482015275496e73756666696369656e74206c697175696469747960501b6044820152606401610762565b3360009081526009602052604081208054839290610a3b9084906113eb565b9250508190555080600a6000828254610a5491906113eb565b90915550610a659050303383610f9b565b60408051338152602081018390527fc2c3f06e49b9f15e7b4af9055e183b0d73362e033ad82a07dec9bf984017171991015b60405180910390a1610aa96001600655565b50565b600033610705818585610f9b565b6007546001600160a01b0316331480610add57506005546001600160a01b031633145b610b1d5760405162461bcd60e51b815260206004820152601160248201527027b7363c902220a79037b91037bbb732b960791b6044820152606401610762565b60405133904780156108fc02916000818181858888f19350505050158015610aa9573d6000803e3d6000fd5b610b51610ffa565b60008111610ba15760405162461bcd60e51b815260206004820152601d60248201527f416d6f756e74206d7573742062652067726561746572207468616e20300000006044820152606401610762565b60003411610bfb5760405162461bcd60e51b815260206004820152602160248201527f45544820616d6f756e74206d7573742062652067726561746572207468616e206044820152600360fc1b6064820152608401610762565b600854600160a01b900460ff16610c495760405162461bcd60e51b8152602060048201526012602482015271111053c81b9bdd081858dd1a5d99481e595d60721b6044820152606401610762565b610c54333083610f9b565b3360009081526009602052604081208054839290610c739084906113fe565b9250508190555080600a6000828254610c8c91906113fe565b909155505060408051338152602081018390527fc17cea59c2955cb181b03393209566960365771dbba9dc3d510180e7cb3120889101610a97565b610ccf610e9d565b6001600160a01b038116610cf957604051631e4fbdf760e01b815260006004820152602401610762565b610aa981610eca565b610d0a610e9d565b600854600160a81b900460ff1615610d645760405162461bcd60e51b815260206004820152601760248201527f4c697175696469747920616c72656164792061646465640000000000000000006044820152606401610762565b6064610d7d6b09b18ab5df7180b6b8000000605a6113b2565b610d8791906113c9565b306000908152602081905260409020541015610ddb5760405162461bcd60e51b8152602060048201526013602482015272496e73756666696369656e7420746f6b656e7360681b6044820152606401610762565b610e1c3073091ad9e2e6e5ed44c1c66db50e49a601f9f36cf66064610e0d6b09b18ab5df7180b6b8000000605a6113b2565b610e1791906113c9565b610e8b565b610e5d3073091ad9e2e6e5ed44c1c66db50e49a601f9f36cf66064610e4e6b09b18ab5df7180b6b8000000605a6113b2565b610e5891906113c9565b610f9b565b6008805460ff60a81b1916600160a81b179055565b606461084b6b09b18ab5df7180b6b8000000600a6113b2565b610e988383836001611024565b505050565b6005546001600160a01b0316331461088e5760405163118cdaa760e01b8152336004820152602401610762565b600580546001600160a01b038381166001600160a01b0319831681179093556040519116919082907f8be0079c531659141344cd1fd0a4f28419497f9722a3daafe3b4186f6b6457e090600090a35050565b6001600160a01b03838116600090815260016020908152604080832093861683529290522054600019811015610f955781811015610f8657604051637dc7a0d960e11b81526001600160a01b03841660048201526024810182905260448101839052606401610762565b610f9584848484036000611024565b50505050565b6001600160a01b038316610fc557604051634b637e8f60e11b815260006004820152602401610762565b6001600160a01b038216610fef5760405163ec442f0560e01b815260006004820152602401610762565b610e988383836110f9565b60026006540361101d57604051633ee5aeb560e01b815260040160405180910390fd5b6002600655565b6001600160a01b03841661104e5760405163e602df0560e01b815260006004820152602401610762565b6001600160a01b03831661107857604051634a1406b160e11b815260006004820152602401610762565b6001600160a01b0380851660009081526001602090815260408083209387168352929052208290558015610f9557826001600160a01b0316846001600160a01b03167f8c5be1e5ebec7d5bd14f71427d1e84f3dd0314c0f7b2291e5b200ac8c7c3b925846040516110eb91815260200190565b60405180910390a350505050565b6001600160a01b03831661112457806002600082825461111991906113fe565b909155506111969050565b6001600160a01b038316600090815260208190526040902054818110156111775760405163391434e360e21b81526001600160a01b03851660048201526024810182905260448101839052606401610762565b6001600160a01b03841660009081526020819052604090209082900390555b6001600160a01b0382166111b2576002805482900390556111d1565b6001600160a01b03821660009081526020819052604090208054820190555b816001600160a01b0316836001600160a01b03167fddf252ad1be2c89b69c2b068fc378daa952ba7f163c4a11628f55a4df523b3ef8360405161121691815260200190565b60405180910390a3505050565b60006020808352835180602085015260005b8181101561125157858101830151858201604001528201611235565b506000604082860101526040601f19601f8301168501019250505092915050565b80356001600160a01b038116811461128957600080fd5b919050565b600080604083850312156112a157600080fd5b6112aa83611272565b946020939093013593505050565b6000602082840312156112ca57600080fd5b6112d382611272565b9392505050565b6000806000606084860312156112ef57600080fd5b6112f884611272565b925061130660208501611272565b9150604084013590509250925092565b60006020828403121561132857600080fd5b5035919050565b6000806040838503121561134257600080fd5b61134b83611272565b915061135960208401611272565b90509250929050565b600181811c9082168061137657607f821691505b60208210810361139657634e487b7160e01b600052602260045260246000fd5b50919050565b634e487b7160e01b600052601160045260246000fd5b808202811582820484141761070b5761070b61139c565b6000826113e657634e487b7160e01b600052601260045260246000fd5b500490565b8181038181111561070b5761070b61139c565b8082018082111561070b5761070b61139c56fea2646970667358221220cc225fbf0d4610f6d58a883cdb760a445d9582929dcadafe96560e10b91b0e3d64736f6c63430008180033",
  "linkReferences": {},
  "deployedLinkReferences": {}
}